:0A009000C0F9A4B0999282F88090A4
:100003002090FD3090FD750809AF08EF3395E0FEB1
:1000130074902FF58274003EF583E493F5807FE8B6
:100023007E031200631508C3E5086480948050D9E9
:10003300C2A0E4F508AF08EF3395E0FE74902FF506
:100043008274003EF583E493F5807FE87E0312001B
:10005300630508C3E5086480948A40D9D2A080A0D0
:10006300E4FDFCC3ED9FEC9E5016758CE0758A1879
:10007300D28C308DFDC28CC28D0DBD00010C80E38E
:01008300225A
:0300000002008477
:0C008400787FE4F6D8FD758108020003C7
:00000001FF
