:0B08F200485559454E005452414D003E
:10087B00E4FDFCC3ED9FEC9E5015E4FBFA0BBB00B3
:0F088B00010AEB647D4A70F50DBD00010C80E49D
:01089A00223B
:070858007E0012087B7F30D7
:10085F00C2A0C2A18F90C2A2D2A2EFD39402500421
:0C086F007F0280027F017E0012087B22C5
:1008D500D2A0C2A18F90C2A2D2A27F017E0002083F
:0108E5007B97
:06082D008B088A09890A0C
:10083300E4F50BF50CAB08AA09A90A850C82850B14
:1008430083120800FF600D1208D5050CE50C70E556
:04085300050B80E130
:01085700227E
:10089B007F3012085F7F051208587F011208587FBE
:0E08AB003812085F7F0112085F7F0E02085F9F
:1008B90012089B7BFF7A0879F212082D7FC0120873
:0C08C9005F7BFF7A0879F812082D80FE92
:030000000208E60D
:0C08E600787FE4F6D8FD75810C0208B99B
:10080000BB010CE58229F582E5833AF583E02250AD
:1008100006E92582F8E622BBFE06E92582F8E222F7
:0D082000E58229F582E5833AF583E4932211
:00000001FF
