:0A015000C0F9A4B0999282F88090E3
:10000300C280D281D282750814E50875F00A120104
:1000130001FF3395E0FE74502FF58274013EF583A2
:10002300E493F5A0E50875F00A120101AFF0EF3390
:1000330095E0FE74502FF58274013EF583E493F549
:10004300B07FE87E031201231508C3E5086480949A
:100053008050B6D280D281C282750810E50875F04F
:100063000A120101FF3395E0FE74502FF5827401EB
:100073003EF583E493F5A0E50875F00A120101AF9C
:10008300F0EF3395E0FE74502FF58274013EF58353
:10009300E493F5B07FE87E031201231508C3E50856
:1000A3006480948050B6D280C281D282750804C322
:1000B300E508648094805003020003E50875F00AA4
:1000C300120101FF3395E0FE74502FF58274013E57
:1000D300F583E493F5A0E50875F00A120101AFF08A
:1000E300EF3395E0FE74502FF58274013EF583E4FF
:0E00F30093F5B07FE87E03120123150880B15B
:10012300E4FDFCC3ED9FEC9E5016758CE0758A18B8
:10013300D28C308DFDC28CC28D0DBD00010C80E3CD
:010143002299
:03000000020144B6
:0C014400787FE4F6D8FD75810802000306
:10010100C2D530F707B2D563F0FF05F030E70CB286
:10011100D5F4048463F0FF05F080018430D502F446
:020121000422B6
:00000001FF
