:10000000020875AE07D2A0120802D2A1C2A17F29B0
:1000100002089D0208A91208A412085912067A7D46
:10002000907F071207E9D28AD2AAD2AF752F007546
:100030003000753122753200753300753423753503
:10004000007536007537247B007A0079211204CDC3
:10005000E52175F00A842430FB7D057F0112081A22
:10006000E52175F00A84E5F02430FF1200037F3AA1
:10007000120003E52275F00A842430FF120003E524
:100080002275F00A84E5F02430FF1200037F3A1253
:100090000003E52375F00A842430FF120003E523F2
:1000A00075F00A84E5F02430FF120003752F007507
:1000B000300075312675320075330075342775357B
:1000C000007536007537287B007A0079251205AB5C
:1000D00020B0030201627BFF7A0679F27D017F0284
:1000E0001207CAE52575F003A4240BF582E4340752
:1000F000F583E493FB740193FA740293F97D027F14
:10010000021207CA7F20120003E52675F00A842434
:1001100030FF120003E52675F00A84E5F02430FF75
:100120001200037F2F120003E52775F00A842430A4
:10013000FF120003E52775F00A84E5F02430FF1272
:1001400000037BFF7A07790312078AE52875F00A16
:10015000842430FF120003E52875F00A84E5F002DC
:10016000024D752F007530007531297532007533D9
:100170000075342A75350075360075372BAB28AD00
:1001800027AF261202597BFF7A0779077D017F028C
:100190001207CAE52975F00A842430FF120003E52E
:1001A0002975F00A84E5F02430FF1200037F2F1236
:1001B0000003E52A75F00A842430FF120003E52AC3
:1001C00075F00A84E5F02430FF1200037F2F12003F
:1001D00003AF2BEF3395E0FEEF24D0FFEE3407FEA4
:1001E0007C037DE8120497EF2430FF120003AF2B4D
:1001F000EF3395E0FEEF24D0FFEE3407FE7C007D68
:10020000641204977C007D0A120497ED2430FF12DB
:100210000003AF2BEF3395E0FEEF24D0FFEE340761
:10022000FE7C007D0A1204977C007D0A120497ED83
:100230002430FF120003AF2BEF3395E0FEEF24D004
:10024000FFEE3407FE7C007D0A120497ED2430FF98
:1002500012000343870102002C8F2C8D2D8B2EE57D
:100260002E75F00CA47C002DFFEC35F0FEEF25E0A0
:10027000FDEE33FC74A82DF58274083CF583E493FD
:10028000F53C740193F53DAE3CAF3DEF541FF5389E
:10029000AE3CAF3DEF7805CEC313CE13D8F9540F63
:1002A000F539AE3CAF3DEEC3135401241DF53AAE13
:1002B0003CAF3DEE13135401F53B74AA2DF5827447
:1002C000083CF583E493F53C740193F53DAE3CAFF7
:1002D0003DEF541FFDAE3CAF3DEF7805CEC313CECE
:1002E00013D8F9540FFFE538653A7061ED64027078
:1002F0005CE52CB4010DAB2FAA30A931E53812040E
:100300000E802AE52CB41F15AB2FAA30A931740139
:1003100012040EAB32AA33A934EF02039EE52C146B
:10032000AB2FAA30A93112040EE53B600AAB32AA0A
:1003300033A934E5398067E539B40C047F018004C2
:10034000E53904FFAB32AA33A934EF8051E52C25FF
:100350003814AB2FAA30A93112040EAB2FAA30A942
:10036000311203C8FFD3953A500AAB32AA33A934ED
:10037000E539802AAB2FAA30A931C3EF953A120490
:100380000EE53904C3953BAB32AA33A93412040EEF
:10039000AB32AA33A9341203C8B40D057401120498
:1003A0000EAB32AA33A9341203C8FFE52DC39F4018
:1003B0000AAB35AA36A937E52E8009E52E14AB35F0
:1003C000AA36A93712040E22BB010689828A83E06D
:1003D000225002E722BBFE02E32289828A83E49351
:1003E00022BB010CE58229F582E5833AF583E02200
:1003F0005006E92582F8E622BBFE06E92582F8E2EE
:1004000022E58229F582E5833AF583E49322BB0154
:100410000689828A83F0225002F722BBFE01F32272
:10042000F8BB010DE58229F582E5833AF583E8F012
:10043000225006E92582C8F622BBFE05E92582C8BE
:10044000F222BC000BBE0029EF8DF084FFADF0223C
:10045000E4CCF875F008EF2FFFEE33FEEC33FCEE42
:100460009DEC984005FCEE9DFE0FD5F0E9E4CEFD35
:1004700022EDF8F5F0EE8420D21CFEADF075F00808
:10048000EF2FFFED33FD4007985006D5F0F222C361
:1004900098FD0FD5F0EA22C2D5EC30E709B2D5E4D9
:1004A000C39DFDE49CFCEE30E715B2D5E4C39FFF8D
:1004B000E49EFE120442C3E49DFDE49CFC80031212
:1004C000044230D507C3E49FFFE49EFE228B2C8AB2
:1004D0002D892E1208817FD0120831E4FF120831D5
:1004E0001208817FD1120831D2011207478F3AD208
:1004F000011207478F39C2011207478F3812089639
:10050000533A7FE53AC4540F75F00AA4FFE53A5414
:100510000F2FAB32AA33A93412040E53397FE539B9
:10052000C4540F75F00AA4FFE539540F2FAB2FAA5E
:1005300030A93112040EE53830E633AB35AA36A9BE
:1005400037740C12040EE53830E504D2008002C284
:100550000053381FE538C4540F75F00AA4FFE5387E
:10056000540F2FAB2CAA2DA92E12040E803AAB35B6
:10057000AA36A937741812040E53383FE538C4540C
:100580000F75F00AA4FFE538540F2FAB2CAA2DA944
:100590002E12040EAB2CAA2DA92E1203C8C3940C44
:1005A0005004C2008002D200A200228B2C8A2D8926
:1005B0002E1208817FD01208317F031208311208F1
:1005C000817FD1120831D201120747AB2CAA2DA985
:1005D0002EEF12040ED201120747AB2FAA30A93119
:1005E000EF12040ED201120747AB32AA33A934EF3F
:1005F00012040EC201120747AB35AA36A937EF1213
:10060000040E120896AB2CAA2DA92E1203C854076B
:1006100012040EAB2FAA30A9311203C8543F1204A2
:100620000EAB2FAA30A9311203C8FFC4540F75F0C6
:100630000AA4FEEF540F2E12040EAB32AA33A934D3
:100640001203C8541F12040EAB32AA33A93412038A
:10065000C8FFC4540F75F00AA4FEEF540F2E120405
:100660000EAB35AA36A9371203C8FFC4540F75F074
:100670000AA4FEEF540F2E02040EC2A0C2A17F14E2
:100680007E001207AA7F03120809D2A1C2A17F052A
:100690007E001207AA7F03120809D2A1C2A17F64BB
:1006A00012089D7F03120809D2A1C2A17F017E001A
:1006B0001207AA7F02120809D2A1C2A11F7E00124E
:1006C00007AA7F2812076A7F0C12076A7F011207A8
:1006D0006A7F0602076A53554E004D4F4E0054552F
:1006E000450057454400544855004652490053417F
:1006F00054002020202020202020202020202020E6
:100700002020002F3230004C554E41523A00FF0657
:10071000D6FF06DAFF06DEFF06E2FF06E6FF06EA80
:10072000FF06EE8F2C1208817FD0120831AF2C12F9
:1007300008311208817FD1120831C2011207478F98
:100740002D120896AF2D22E4FFFED291D290EF2514
:10075000E0FF309103430701C2900EBE08EC300168
:1007600005120888800312088F22AE07C2A0120863
:1007700002D2A1C2A1EF24FE60030470077F027EB3
:10078000000207AA7F2512089D228B2F8A3089310B
:10079000E4FDAB2FAA30A9318D827583001203E1ED
:1007A000FF60061200030D80E922E4FDFCC3ED9F0B
:1007B000EC9E5015E4FBFA0BBB00010AEB647B4A8C
:1007C00070F50DBD00010C80E4228B2C8A2D892E42
:1007D000BF01047F8080027FC0ED142FFF12076AE3
:1007E000AB2CAA2DA92E02078A8F2C8D2D120881E1
:1007F0007FD0120831AF2C120831AF2D1208310210
:100800000896120847D2A1C2A1EFA2E392A7A2E2E2
:1008100092A6A2E192A51392A4228B2CBF01047F81
:100820008080027FC0ED142FFF12076AAF2C0200F8
:1008300003E4FEEF339291D290C290EF25E0FF0ED9
:10084000BE08F012086822EF3392A7EFA2E692A644
:10085000A2E592A5A2E492A422E4FF120723AD0729
:1008600053057FE4FF0207E9D291D290A291920151
:10087000C290A20122787FE4F6D8FD75813D020086
:1008800016D290C291C29022C291D290C29022D22E
:1008900091D290C29022C291D290D29122AE071FE3
:1008A000EE70FA22D290D29122321B79099A1A3A2A
:1008B000125B187B109D1ABE18E21304192413460C
:1008C0001B66198702291A4710681A89108A1AAB01
:1008D00018CC10EE1B0F11301B51197203941A32F1
:1008E00012531873129518B51AD710F81919133B2B
:1008F000195B1B7D00211A3D125E188112A218C2DD
:100900001AE411051926134819681B8A082B1A4B7B
:10091000104C1A6D128E18AE1AD010F11B12113332
:100920001B5419750397183512571877129918B96F
:100930001ADB12FC191C133E196119820224184299
:100940001264188410A61AC71AE810E91B0A132BA0
:10095000194B1B6D018E1A2D104E1A6F109018B185
:100960001AD310F41B1513361B5619770B991A3826
:100970001059187A129C18BC18E111021B2311445B
:100980001B651B86022718451267188712A918A92C
:1009900018CB12ED190D132F194F1B7103921A303A
:1009A00010511A7210931AB418D510F71B18113978
:1009B0001B5A197B039D1A3B105C1A7D129E18C1AD
:1009C00018E211041B2511461B6719880A2A1849C9
:1009D000126B1A8B108C1AAD18CE12F0191013323C
:1009E00019521B7401951A3410551A7610971AB8BB
:1009F0001AD910FA1B1B113C1B5D198100221841EA
:100A000010621A8310A41AC518E613081B281129AE
:100A10001B4A196B038D182B124D186D108F1AB0CD
:100A200018D112F31B13133419541B7609971A3774
:100A300010581A79109A18BB1ADD11011B211142A6
:100A40001B631B8400251A4410651A8610A718C85A
:100A50001ACA10EB1B0C112D1B4E1B6F0390182E86
:100A600012501870129218B218D412F619161138C2
:100A70001B591B7A039B1839125B1A7B109C1ABDF9
:100A800018E11303192311451B661B8708281A4810
:100A900012691A89108A1AAB18CC10EE1B0F11308C
:100AA00019511B730394183212541A7410951AB604
:100AB00018D712F91919133B195B1B7D00211A3D38
:100AC00010611A8112A31AC318E4130619261348D9
:100AD00019681B8A002B1A4A104B186C128E1AAE1A
:100AE00018CF12F11B1111321B5319740B961835C4
:100AF0001257187710991ABA18DB12FD1B1D1141F5
:100B00001B611982022418421264188410A61AC7A5
:100B100018C812EA190A132C1B4C1B6D018E1A2DD2
:100B2000104E1A6F109018B11AD310F4191513370C
:100B30001B571B7801991A3812591879129B18BB48
:100B400018DD1301192213441B6419850A271A465C
:100B50001267188712A918A918CB12ED190D112FB9
:100B60001B501B7101921A3112521872129418B450
:100B70001AD610F71B181139195A1B7C019D1A3C03
:100B8000125D187D12A11AC11AE311041B2511462A
:100B90001B671988002A1A49106A1A6B128C18AC44
:100BA0001ACE12EF190F133119511B73099418340F
:100BB00012561876129818B81ADA12FB191B133D40
:100BC0001B5D1981002218411062188312A518C5F7
:100BD0001AE711081B29134A1B6A196B038D182B7E
:100BE000124D186D108F1AB018D110F31B14133555
:100BF0001B55197603981A3610571A78109918BA97
:100C00001ADC10FD1921134219621B840A251A44AB
:100C100010651A8610A718C81ACA10EB190C132EE3
:100C2000194E1B7003911A2F10501A71129218B29C
:100C300018D412F6191611381B59197A039C1A3A4E
:100C4000105B1A7C129D18BD1AE11303192311457C
:100C50001B66198702291A4710681A8912AA18AA4E
:100C60001ACC10ED1B0E112F19501B7209931A3359
:100C700010541A75129618B61AD810F91B1A133B8D
:100C8000195B1B7D0021183D12611A8210A31AC442
:100C900018E513071B27134819681B8A002B1A4AEB
:100CA000104B186C128E18AE1AD010F11B121333A1
:100CB00019531B75039618341256187610981AB9E2
:100CC00018DA10FC1B1D133E19611B820A231842FF
:100CD0001264188410A61AC718E810EA1B0B112C0E
:100CE0001B4D1B6E038F1A2D104E1A6F109018B1EA
:100CF0001AD310F41915133719571B79039A1A3898
:100D000010591A7A109B1ABC18DD130119221344CA
:100D100019641B860227184512671A8710A81AA99A
:100D200018CA12EC190C112E1B4F19700B921831A6
:100D300012531A7310941AB51AD610F71B181139DA
:100D4000195A1B7C019D1A3C105D1A7E12A21AC210
:100D500018E31305192513471B671988002A1A4938
:100D6000106A1A6B108C1AAD18CE12F01B101131CC
:100D70001B521B730194183312551875129718B72C
:100D800018D912FB1B1B113C1B5D1B7E0A2118414D
:100D90001062188312A518C518E713091909132B37
:100DA0001B4B1B6C018D1A2C124D186D108F1AB035
:100DB00018D110F31B1411351B561B7703981836E6
:100DC00012581878129A18BA1ADC10FD192111421B
:100DD0001B631B8400251A441265188512A718C7C7
:100DE0001AC910EA190B132D194D1B6F09901A30EF
:100DF0001251187112931AB318D412F61916113829
:100E00001B59197A039C183A125C187C129E1ABE60
:100E10001AE211031B2411451B6619870229184782
:100E200012691889128B18AB1ACD12EE190E1330F5
:100E300019501B7201931A3210531A7410951AB676
:100E400018D712F91919133B1B5B197C0B9E183D1F
:100E500012611A8210A318C41AE611071B2813493D
:100E60001B69198A022C1A4A106B186C128E18AE64
:100E700018D012F2191213341B541B7501961A352F
:100E80001256187610981AB918DA10FC1B1D114169
:100E90001B611B8302241A4210631A8410A51AC610
:100EA00018E710E91B0A112B1B4C196D0B8F1A2E1A
:100EB000124F186F129118B11AD310F41915133775
:100EC00019571B79019A1A39125A187A129C1ABCAE
:100ED00018DD13021922134419641B8600271A46D1
:100EE00010671A8812A918A91ACB10EC1B0D112E25
:100EF0001B4F19700392183012521872129418B4C2
:100F00001AD612F71917133919591B7B099C1A3C69
:100F1000105D1A7E10A21AC31AE411051B2613478E
:100F200019671B89002A1A49106A1A8B108C18AD90
:100F30001ACF10F01B1113321B521973039518337B
:100F400012551875129718B718D912FB191B133DB3
:100F5000195D1B8102221A3E1262188212A418C463
:100F600018E613081908132A194A1B6C0B8D1A2C42
:100F7000104D1A6E108F1AB018D110F31B141135C2
:100F800019561B7803991A3710581A79129A18BAF9
:100F90001ADC10FD1921114219631B850226184421
:100FA00012661A8610A71AC818C912EB190B132D4E
:100FB000194D1B6F01901A2F10501A7110921AB30D
:100FC0001AD410F51B1611371B5819790B9B183AB8
:100FD000125C187C129E18C118E213041B241145E0
:100FE0001B6619870229184712691889108B1AACD9
:100FF00018CD12EF1B0F11301B511B7201931A32C7
:1010000010531A74109518B61AD810F91B1A113B00
:101010001B5C1B7D039E183C125E188110A218C336
:101020001AE511061B2711481B691B8A0A2B184A4F
:10103000126C186C128E18AE18D010F21B131134EB
:101040001B551B760397183512571A7710981AB943
:1010500018DA10FC1B1D11411B621B8300241A436C
:101060001264188412A618C61AE810E91B0A112B7C
:10107000194C1B6E038F182D124F1A6F10901AB156
:1010800018D212F41914133619561B7809991A3903
:10109000105A1A7B109C1ABD1ADE1302192213442F
:1010A00019641B86002718461268188812AA1AAA03
:1010B00018CB12ED190D132F1B4F19700392183016
:1010C00010521A7310941AB518D612F81B18113949
:1010D0001B5A1B7B019C1A3B105C1A7D10A11AC283
:1010E00018E31305192513471B671B8808291A499C
:1010F000106A1A8B108C18AD18CF12F11911133316
:101100001B531B7401951A3412551875129718B792
:1011100018D910FB1B1C113D1B5E1B8102231A41B9
:101120001262188212A418C418E613081908112AAA
:101130001B4B196C038E1A2C124D186D128F18AFA1
:101140001AD110F21B13113419551B7709981A384C
:1011500012591879129B1ABB18DC12FE1921114280
:1011600019631B8500261A4510661A8712A818C82D
:101170001ACA12EB190B132D194D1B6F0190182F62
:1011800012511871129318B31AD512F61916133892
:101190001B581979039B1839105B1A7C109D1ABED5
:1011A0001AE211031B2413451B6519860A281847E8
:1011B00012691889108B1AAC18CD10EF1B1013315F
:1011C0001B51197203941A3210531A74109518B6E1
:1011D00018D812FA191A133C1B5C197D02211A3D0A
:1011E000125E188110A218C318E5130719271349B6
:1011F00019691B8B022C1A4A104B1A6C108D1AAEEF
:0A12000018CF10F11B1211331B541C
:00000001FF
