:0B00F50048454C4C4F005452414D0058
:10007E00E4FDFCC3ED9FEC9E5015E4FBFA0BBB00B8
:0F008E00010AEB647D4A70F50DBD00010C80E4A2
:01009D002240
:07005B007E0012007E7F30E1
:10006200C2A0C2A18F90C2A2D2A2EFD39402500426
:0C0072007F0280027F017E0012007E22CF
:1000D800D2A0C2A18F90C2A2D2A27F017E0002004C
:0100E8007E99
:060030008B088A09890A11
:10003600E4F50BF50CAB08AA09A90A850C82850B19
:1000460083120003FF600D1200D8050CE50C70E565
:04005600050B80E135
:01005A002283
:10009E007F301200627F0512005B7F0112005B7FD2
:0E00AE00381200627F011200627F0E020062B3
:1000BC0012009E7BFF7A0079F51200307FC012008F
:0C00CC00627BFF7A0079FB12003080FE9E
:030000000200E912
:0C00E900787FE4F6D8FD75810C0200BCA5
:10000300BB010CE58229F582E5833AF583E02250B2
:1000130006E92582F8E622BBFE06E92582F8E222FC
:0D002300E58229F582E5833AF583E4932216
:00000001FF
