:10006C00E4F50AF50B7F0A7E00120095209006300D
:10007C0090FD7F0122050BE50B7002050AC394323B
:08008C00E50A940040DF7F004B
:010094002249
:10000300E4F5A0F508F50912006CEF701463A0FF86
:100013000509E50970020508C39414E50894004036
:10002300E675A055E4F508F50912006CEF7014634A
:10003300A0FF0509E50970020508C39414E50894B7
:100043000040E675A00FE4F508F509C3E50994142B
:10005300E508940050AA12006CEF70A463A0FF059A
:0900630009E50970E6050880E2D8
:10009500E4FDFCC3ED9FEC9E5016758CE0758A1847
:1000A500D28C308DFDC28CC28D0DBD00010C80E35C
:0100B5002228
:030000000200B645
:0C00B600787FE4F6D8FD75810B02000392
:00000001FF
