:10008C00D288D2A8D2AFC2A3C2A2C2A1C2A04387B7
:03009C000180FBE5
:03000300020006F2
:10000600C0E0C0F0C083C082C0D075D000C000C0C0
:1000160001C002C003C004C005C006C0077F147E2D
:100026000012006B209007B2A020901E80FB20914A
:1000360007B2A120911480FB209207B2A220920A57
:1000460080FB209305B2A33093FDD007D006D005E0
:10005600D004D003D002D001D000D0D0D082D0833B
:05006600D0F0D0E032F3
:10006B00E4FDFCC3ED9FEC9E5016758CE0758A1871
:10007B00D28C308DFDC28CC28D0DBD00010C80E386
:01008B002252
:0300000002009F5C
:0C009F00787FE4F6D8FD75810702008C24
:00000001FF
