:0A016C00C0F9A4B0999282F88090C7
:04000300AB07AA0697
:100007007C277D101200D18F087C277D10AF03AEAF
:10001700021200D1AA04AB057C037DE8AF03AE0250
:100027001200D18F097C037DE8AF03AE021200D125
:10003700AA04AB057C007D64AF03AE021200D18F2A
:100047000A7C007D64AF03AE021200D1AA04AB059F
:100057007C007D0AAF03AE021200D18F0B7C007DBE
:100067000AAF03AE021200D18D0CE50890016C9324
:10007700F580C2A47F017E00120126D2A4E5099073
:10008700016C93F580C2A37F017E00120126D2A3E3
:10009700E50A90016C93F580C2A27F017E001201F0
:1000A70026D2A2E50B90016C93F580C2A17F017E59
:1000B70000120126D2A1E50C90016C93F580C2A035
:0900C7007F017E00120126D2A087
:0100D000220D
:10014D0053890F438950D28EB2B07FE87E031201DE
:03015D002680F504
:100126005389F0438901E4FDFCC3ED9FEC9E501614
:10013600758CFC758A2BD28C308DFDC28CC28D0DD0
:06014600BD00010C80E386
:01014C002290
:030000000201609A
:0C016000787FE4F6D8FD75811002014D97
:1000D100BC000BBE0029EF8DF084FFADF022E4CC13
:1000E100F875F008EF2FFFEE33FEEC33FCEE9DECDC
:1000F100984005FCEE9DFE0FD5F0E9E4CEFD22ED22
:10010100F8F5F0EE8420D21CFEADF075F008EF2F6B
:10011100FFED33FD4007985006D5F0F222C398FD5C
:050121000FD5F0EA22F9
:00000001FF
