:0300030001080AE7
:1000C1005389F0438901758C3C758AB0D2A9D2AFAE
:0400D100D28C80FE4F
:03000B000200D51B
:1000D500758C3C758AB0D5080675080A63A0FF3291
:10009A005389F0438901E4FDFCC3ED9FEC9E5016A1
:1000AA00758CFC758A2BD28C308DFDC28CC28D0D5D
:0600BA00BD00010C80E313
:0100C000221D
:0300000002000EED
:0C000E00787FE4F6D8FD758108020055EB
:10001A000200C1E493A3F8E493A34003F68001F23B
:10002A0008DFF48029E493A3F85407240CC8C333E7
:10003A00C4540F4420C8834004F456800146F6DFB6
:10004A00E4800B0102040810204080900003E47E43
:10005A00019360BCA3FF543F30E509541FFEE493AB
:10006A00A360010ECF54C025E060A840B8E493A372
:10007A00FAE493A3F8E493A3C8C582C8CAC583CA9D
:10008A00F0A3C8C582C8CAC583CADFE9DEE780BE55
:0100060000F9
:00000001FF
