:100000000204441202C67BFF7A0479367D017F0127
:100010001203C67BFF7A04793F7D017F021203C67B
:100020005389F0438909E4F58CF58A20B2FD30B29A
:10003000FDD28C20B2FDC28CAF8C750A008F0BE50F
:100040000B750B00F50AAF8AEF420BAE0AAF0B7CC3
:10005000277D101201A3EF2430FB7D097F011203DD
:10006000FDAE0AAF0B7C277D101201A37E037FE853
:10007000CFCDCFCECCCE1201A3EF2430FF12042679
:10008000AE0AAF0B7C037DE81201A37E007F64CF34
:10009000CDCFCECCCE1201A3EF2430FF120426AE7A
:1000A0000AAF0B7C007D641201A37E007F0ACFCDD6
:1000B000CFCECCCE1201A3EF2430FF120426AE0A1D
:1000C000AF0B7C007D0A1201A3ED2430FF12042641
:1000D000AE0AAF0BAB07AA06E4F9F87F407E427D7B
:1000E0000FFC120322E47B02FAF9F81203228E08B5
:1000F0008F097C277D101201A3EF2430FB7D097F3F
:10010000021203FDAE08AF097C277D101201A37E09
:10011000037FE8CFCDCFCECCCE1201A3EF2430FFAA
:10012000120426AE08AF097C037DE81201A37E000D
:100130007F64CFCDCFCECCCE1201A3EF2430FF12FF
:100140000426AE08AF097C007D641201A37E007F07
:100150000ACFCDCFCECCCE1201A3EF2430FF1204B4
:1001600026AE08AF097C007D0A1201A3ED2430FF02
:10017000120426020026BB010CE58229F582E583E4
:100180003AF583E0225006E92582F8E622BBFE0616
:10019000E92582F8E222E58229F582E5833AF583B2
:1001A000E49322BC000BBE0029EF8DF084FFADF07C
:1001B00022E4CCF875F008EF2FFFEE33FEEC33FCB1
:1001C000EE9DEC984005FCEE9DFE0FD5F0E9E4CEE7
:1001D000FD22EDF8F5F0EE8420D21CFEADF075F0B6
:1001E00008EF2FFFED33FD4007985006D5F0F222BF
:1001F000C398FD0FD5F0EA2275F008758200EF2F45
:10020000FFEE33FECD33CDCC33CCC58233C5829BDC
:10021000ED9AEC99E58298400CF582EE9BFEED9A02
:10022000FDEC99FC0FD5F0D6E4CEFBE4CDFAE4CC9E
:10023000F9A88222B800C1B90059BA002DEC8BF0A0
:1002400084CFCECDFCE5F0CBF97818EF2FFFEE335D
:10025000FEED33FDEC33FCEB33FB10D70399400488
:10026000EB99FB0FD8E5E4F9FA227818EF2FFFEEAF
:1002700033FEED33FDEC33FCC933C910D7059BE9E0
:100280009A4007EC9BFCE99AF90FD8E0E4C9FAE43C
:10029000CCFB2275F010EF2FFFEE33FEED33FDCCDB
:1002A00033CCC833C810D7079BEC9AE899400AEDC5
:1002B0009BFDEC9AFCE899F80FD5F0DAE4CDFBE46D
:1002C000CCFAE4C8F922C280C2817F147E001203F6
:1002D000A67F031203ECD281C2817F057E00120348
:1002E000A67F031203ECD281C2817F641204507F87
:1002F000031203ECD281C2817F017E001203A67F2C
:10030000021203ECD281C2811F7E001203A67F2855
:100310001203667F0C1203667F011203667F0602DA
:100320000366C2D5E830E70FB2D5E4C39BFBE49A7D
:10033000FAE499F9E498F8EC30E717B2D5120358CB
:10034000120234E4C39BFBE49AFAE499F9E498F8C6
:10035000800312023430D50DE4C39FFFE49EFEE417
:100360009DFDE49CFC22AE07C2801203E5D281C24F
:1003700081EF24FE60030470077F027E000203A663
:100380007F25120450228B0F8A108911E4FDAB0FD8
:10039000AA10A9118D82758300120176FF600612E2
:1003A00004260D80E922E4FDFCC3ED9FEC9E501570
:1003B000E4FBFA0BBB00010AEB647B4A70F50DBD50
:1003C00000010C80E4228B0C8A0D890EBF01047F92
:1003D0008080027FC0ED142FFF120366AB0CAA0DC4
:1003E000A90E020386120414D281C281EFA2E39205
:1003F00087A2E29286A2E19285139284228B0CBF9F
:1004000001047F8080027FC0ED142FFF120366AFCE
:100410000C020426EF339287EFA2E69286A2E592C1
:1004200085A2E4928422AE07D2801203E5D281C273
:10043000817F290204505769647468203D2000467A
:10044000203D2000787FE4F6D8FD7581110200037D
:07045000AE071FEE70FA2257
:00000001FF
